00046100                             0010000000000000000LPSCuota de Aportaciones COPEMH                              
000461001                            0010000000000000000LPSCuota de Aportaciones COPEMH                              
0004610039                           0010000000000000000LPSCuota de Aportaciones COPEMH                              
0004610043                           0010000000000000000LPSCuota de Aportaciones COPEMH                              
0004610046                           0010000000000000000LPSCuota de Aportaciones COPEMH                              
000461011                            0010000000000000000LPSCuota de Aportaciones COPEMH                              
0004610141                           0010000000000000000LPSCuota de Aportaciones COPEMH                              
0004610157                           0010000000000002000LPSCuota de Aportaciones COPEMH                              
0004610161                           0010000000000000000LPSCuota de Aportaciones COPEMH                              
0004610203                           0010000000000000000LPSCuota de Aportaciones COPEMH                              
000461021                            0010000000000000000LPSCuota de Aportaciones COPEMH                              
000461027                            0010000000000000000LPSCuota de Aportaciones COPEMH                              
0004610286                           0010000000000000000LPSCuota de Aportaciones COPEMH                              
0004610300                           0010000000000000000LPSCuota de Aportaciones COPEMH                              
000461032                            0010000000000000000LPSCuota de Aportaciones COPEMH                              
0004610328                           0010000000000000000LPSCuota de Aportaciones COPEMH                              
00046104                             0010000000000000000LPSCuota de Aportaciones COPEMH                              
0004610426                           0010000000000025000LPSCuota de Aportaciones COPEMH                              
000461046                            0010000000000000000LPSCuota de Aportaciones COPEMH                              
0004610467                           0010000000000000000LPSCuota de Aportaciones COPEMH                              
0004610474                           0010000000000025000LPSCuota de Aportaciones COPEMH                              
000461049                            0010000000000000000LPSCuota de Aportaciones COPEMH                              
0004610499                           0010000000000025000LPSCuota de Aportaciones COPEMH                              
0004610500                           0010000000000000000LPSCuota de Aportaciones COPEMH                              
0004610592                           0010000000000000000LPSCuota de Aportaciones COPEMH                              
00046106                             0010000000000000000LPSCuota de Aportaciones COPEMH                              
0004610601                           0010000000000000000LPSCuota de Aportaciones COPEMH                              
00046107                             0010000000000000000LPSCuota de Aportaciones COPEMH                              
0004610702                           0010000000000050000LPSCuota de Aportaciones COPEMH                              
0004610735                           0010000000000000000LPSCuota de Aportaciones COPEMH                              
000461075                            0010000000000000000LPSCuota de Aportaciones COPEMH                              
0004610758                           0010000000000050000LPSCuota de Aportaciones COPEMH                              
00046108                             0010000000000000000LPSCuota de Aportaciones COPEMH                              
000461081                            0010000000000000000LPSCuota de Aportaciones COPEMH                              
0004610848                           0010000000000050000LPSCuota de Aportaciones COPEMH                              
0004610874                           0010000000000025000LPSCuota de Aportaciones COPEMH                              
0004610896                           0010000000000000000LPSCuota de Aportaciones COPEMH                              
0004610948                           0010000000000025000LPSCuota de Aportaciones COPEMH                              
000461095                            0010000000000000000LPSCuota de Aportaciones COPEMH                              
000461103                            0010000000000000000LPSCuota de Aportaciones COPEMH                              
000461105                            0010000000000000000LPSCuota de Aportaciones COPEMH                              
0004611083                           0010000000000025000LPSCuota de Aportaciones COPEMH                              
0004611087                           0010000000000000000LPSCuota de Aportaciones COPEMH                              
00046112                             0010000000000000000LPSCuota de Aportaciones COPEMH                              
000461122                            0010000000000000000LPSCuota de Aportaciones COPEMH                              
000461130                            0010000000000000000LPSCuota de Aportaciones COPEMH                              
000461137                            0010000000000000000LPSCuota de Aportaciones COPEMH                              
0004611420                           0010000000000025000LPSCuota de Aportaciones COPEMH                              
0004611442                           0010000000000000000LPSCuota de Aportaciones COPEMH                              
0004611526                           0010000000000025000LPSCuota de Aportaciones COPEMH                              
0004611619                           0010000000000025000LPSCuota de Aportaciones COPEMH                              
0004611645                           0010000000000000000LPSCuota de Aportaciones COPEMH                              
0004611653                           0010000000000025000LPSCuota de Aportaciones COPEMH                              
000461168                            0010000000000000000LPSCuota de Aportaciones COPEMH                              
00046117                             0010000000000000000LPSCuota de Aportaciones COPEMH                              
0004611715                           0010000000000025000LPSCuota de Aportaciones COPEMH                              
000461173                            0010000000000000000LPSCuota de Aportaciones COPEMH                              
000461179                            0010000000000000000LPSCuota de Aportaciones COPEMH                              
0004611810                           0010000000000025000LPSCuota de Aportaciones COPEMH                              
000461185                            0010000000000000000LPSCuota de Aportaciones COPEMH                              
000461189                            0010000000000000000LPSCuota de Aportaciones COPEMH                              
000461193                            0010000000000000000LPSCuota de Aportaciones COPEMH                              
0004611935                           0010000000000062848LPSCuota de Aportaciones COPEMH                              
000461194                            0010000000000000000LPSCuota de Aportaciones COPEMH                              
0004612                              0010000000000000000LPSCuota de Aportaciones COPEMH                              
0004612178                           0010000000000000000LPSCuota de Aportaciones COPEMH                              
000461222                            0010000000000000000LPSCuota de Aportaciones COPEMH                              
0004612332                           0010000000000025000LPSCuota de Aportaciones COPEMH                              
0004612373                           0010000000000000000LPSCuota de Aportaciones COPEMH                              
0004612397                           0010000000000050000LPSCuota de Aportaciones COPEMH                              
0004612421                           0010000000000000000LPSCuota de Aportaciones COPEMH                              
0004612440                           0010000000000000000LPSCuota de Aportaciones COPEMH                              
0004612501                           0010000000000050000LPSCuota de Aportaciones COPEMH                              
0004612514                           0010000000000025000LPSCuota de Aportaciones COPEMH                              
0004612598                           0010000000000025000LPSCuota de Aportaciones COPEMH                              
0004612654                           0010000000000025000LPSCuota de Aportaciones COPEMH                              
0004612710                           0010000000000025000LPSCuota de Aportaciones COPEMH                              
000461280                            0010000000000017868LPSCuota de Aportaciones COPEMH                              
0004612814                           0010000000000000000LPSCuota de Aportaciones COPEMH                              
0004612849                           0010000000000000000LPSCuota de Aportaciones COPEMH                              
000461288                            0010000000000000000LPSCuota de Aportaciones COPEMH                              
000461291                            0010000000000000000LPSCuota de Aportaciones COPEMH                              
0004613082                           0010000000000000000LPSCuota de Aportaciones COPEMH                              
000461315                            0010000000000000000LPSCuota de Aportaciones COPEMH                              
000461318                            0010000000000000000LPSCuota de Aportaciones COPEMH                              
0004613181                           0010000000000025000LPSCuota de Aportaciones COPEMH                              
000461328                            0010000000000000000LPSCuota de Aportaciones COPEMH                              
000461332                            0010000000000000000LPSCuota de Aportaciones COPEMH                              
000461336                            0010000000000000000LPSCuota de Aportaciones COPEMH                              
0004613381                           0010000000000027000LPSCuota de Aportaciones COPEMH                              
000461345                            0010000000000000000LPSCuota de Aportaciones COPEMH                              
0004613466                           0010000000000025000LPSCuota de Aportaciones COPEMH                              
000461354                            0010000000000000000LPSCuota de Aportaciones COPEMH                              
000461364                            0010000000000000000LPSCuota de Aportaciones COPEMH                              
000461366                            0010000000000000000LPSCuota de Aportaciones COPEMH                              
0004613706                           0010000000000000000LPSCuota de Aportaciones COPEMH                              
000461372                            0010000000000000000LPSCuota de Aportaciones COPEMH                              
000461374                            0010000000000000000LPSCuota de Aportaciones COPEMH                              
0004613784                           0010000000000000000LPSCuota de Aportaciones COPEMH                              
0004613803                           0010000000000025000LPSCuota de Aportaciones COPEMH                              
0004613808                           0010000000000025000LPSCuota de Aportaciones COPEMH                              
0004613865                           0010000000000025000LPSCuota de Aportaciones COPEMH                              
0004613894                           0010000000000025000LPSCuota de Aportaciones COPEMH                              
0004613936                           0010000000000000000LPSCuota de Aportaciones COPEMH                              
000461396                            0010000000000000000LPSCuota de Aportaciones COPEMH                              
0004613965                           0010000000000000000LPSCuota de Aportaciones COPEMH                              
0004614004                           0010000000000050000LPSCuota de Aportaciones COPEMH                              
000461402                            0010000000000000000LPSCuota de Aportaciones COPEMH                              
0004614074                           0010000000000025000LPSCuota de Aportaciones COPEMH                              
0004614135                           0010000000000050000LPSCuota de Aportaciones COPEMH                              
0004614158                           0010000000000000000LPSCuota de Aportaciones COPEMH                              
000461422                            0010000000000000000LPSCuota de Aportaciones COPEMH                              
000461427                            0010000000000000000LPSCuota de Aportaciones COPEMH                              
000461442                            0010000000000000000LPSCuota de Aportaciones COPEMH                              
0004614459                           0010000000000025000LPSCuota de Aportaciones COPEMH                              
000461446                            0010000000000017868LPSCuota de Aportaciones COPEMH                              
0004614478                           0010000000000025000LPSCuota de Aportaciones COPEMH                              
0004614498                           0010000000000050000LPSCuota de Aportaciones COPEMH                              
0004614557                           0010000000000025000LPSCuota de Aportaciones COPEMH                              
0004614620                           0010000000000025000LPSCuota de Aportaciones COPEMH                              
000461468                            0010000000000000000LPSCuota de Aportaciones COPEMH                              
000461479                            0010000000000000000LPSCuota de Aportaciones COPEMH                              
0004614804                           0010000000000025000LPSCuota de Aportaciones COPEMH                              
0004614824                           0010000000000000000LPSCuota de Aportaciones COPEMH                              
000461485                            0010000000000000000LPSCuota de Aportaciones COPEMH                              
0004614850                           0010000000000025000LPSCuota de Aportaciones COPEMH                              
000461488                            0010000000000017868LPSCuota de Aportaciones COPEMH                              
00046149                             0010000000000000000LPSCuota de Aportaciones COPEMH                              
0004614976                           0010000000000000000LPSCuota de Aportaciones COPEMH                              
000461505                            0010000000000000000LPSCuota de Aportaciones COPEMH                              
000461508                            0010000000000000000LPSCuota de Aportaciones COPEMH                              
0004615087                           0010000000000025000LPSCuota de Aportaciones COPEMH                              
000461519                            0010000000000000000LPSCuota de Aportaciones COPEMH                              
0004615199                           0010000000000000000LPSCuota de Aportaciones COPEMH                              
000461539                            0010000000000000000LPSCuota de Aportaciones COPEMH                              
000461541                            0010000000000000000LPSCuota de Aportaciones COPEMH                              
000461564                            0010000000000000000LPSCuota de Aportaciones COPEMH                              
000461566                            0010000000000000000LPSCuota de Aportaciones COPEMH                              
0004615668                           0010000000000000000LPSCuota de Aportaciones COPEMH                              
000461568                            0010000000000000000LPSCuota de Aportaciones COPEMH                              
0004615716                           0010000000000000000LPSCuota de Aportaciones COPEMH                              
000461574                            0010000000000000000LPSCuota de Aportaciones COPEMH                              
000461579                            0010000000000000000LPSCuota de Aportaciones COPEMH                              
000461584                            0010000000000000000LPSCuota de Aportaciones COPEMH                              
000461589                            0010000000000000000LPSCuota de Aportaciones COPEMH                              
0004616                              0010000000000000000LPSCuota de Aportaciones COPEMH                              
0004616012                           0010000000000000000LPSCuota de Aportaciones COPEMH                              
0004616041                           0010000000000000000LPSCuota de Aportaciones COPEMH                              
0004616042                           0010000000000000000LPSCuota de Aportaciones COPEMH                              
000461609                            0010000000000000000LPSCuota de Aportaciones COPEMH                              
0004616214                           0010000000000025000LPSCuota de Aportaciones COPEMH                              
0004616227                           0010000000000025000LPSCuota de Aportaciones COPEMH                              
0004616305                           0010000000000000000LPSCuota de Aportaciones COPEMH                              
0004616378                           0010000000000025000LPSCuota de Aportaciones COPEMH                              
000461644                            0010000000000000000LPSCuota de Aportaciones COPEMH                              
0004616486                           0010000000000025000LPSCuota de Aportaciones COPEMH                              
000461655                            0010000000000000000LPSCuota de Aportaciones COPEMH                              
0004616573                           0010000000000000000LPSCuota de Aportaciones COPEMH                              
0004616630                           0010000000000025000LPSCuota de Aportaciones COPEMH                              
000461665                            0010000000000000000LPSCuota de Aportaciones COPEMH                              
0004616652                           0010000000000050000LPSCuota de Aportaciones COPEMH                              
0004616658                           0010000000000025000LPSCuota de Aportaciones COPEMH                              
000461666                            0010000000000000000LPSCuota de Aportaciones COPEMH                              
0004616690                           0010000000000050000LPSCuota de Aportaciones COPEMH                              
000461676                            0010000000000000000LPSCuota de Aportaciones COPEMH                              
0004616809                           0010000000000025000LPSCuota de Aportaciones COPEMH                              
0004617078                           0010000000000025000LPSCuota de Aportaciones COPEMH                              
0004617254                           0010000000000025000LPSCuota de Aportaciones COPEMH                              
0004617279                           0010000000000000000LPSCuota de Aportaciones COPEMH                              
0004617285                           0010000000000025000LPSCuota de Aportaciones COPEMH                              
0004617406                           0010000000000025000LPSCuota de Aportaciones COPEMH                              
000461741                            0010000000000000000LPSCuota de Aportaciones COPEMH                              
0004617460                           0010000000000025000LPSCuota de Aportaciones COPEMH                              
00046175                             0010000000000000000LPSCuota de Aportaciones COPEMH                              
00046176                             0010000000000000000LPSCuota de Aportaciones COPEMH                              
0004617627                           0010000000000000000LPSCuota de Aportaciones COPEMH                              
0004617756                           0010000000000025000LPSCuota de Aportaciones COPEMH                              
000461795                            0010000000000000000LPSCuota de Aportaciones COPEMH                              
0004618022                           0010000000000050000LPSCuota de Aportaciones COPEMH                              
0004618060                           0010000000000000000LPSCuota de Aportaciones COPEMH                              
000461807                            0010000000000000000LPSCuota de Aportaciones COPEMH                              
000461816                            0010000000000000000LPSCuota de Aportaciones COPEMH                              
000461819                            0010000000000000000LPSCuota de Aportaciones COPEMH                              
000461821                            0010000000000000000LPSCuota de Aportaciones COPEMH                              
000461827                            0010000000000000000LPSCuota de Aportaciones COPEMH                              
0004618278                           0010000000000025000LPSCuota de Aportaciones COPEMH                              
0004618292                           0010000000000025000LPSCuota de Aportaciones COPEMH                              
0004618517                           0010000000000025000LPSCuota de Aportaciones COPEMH                              
000461852                            0010000000000000000LPSCuota de Aportaciones COPEMH                              
000461858                            0010000000000000000LPSCuota de Aportaciones COPEMH                              
0004618693                           0010000000000147145LPSCuota de Aportaciones COPEMH                              
000461874                            0010000000000017868LPSCuota de Aportaciones COPEMH                              
000461878                            0010000000000000000LPSCuota de Aportaciones COPEMH                              
0004618846                           0010000000000025000LPSCuota de Aportaciones COPEMH                              
0004618894                           0010000000000025000LPSCuota de Aportaciones COPEMH                              
0004618974                           0010000000000025000LPSCuota de Aportaciones COPEMH                              
000461911                            0010000000000000000LPSCuota de Aportaciones COPEMH                              
0004619438                           0010000000000050000LPSCuota de Aportaciones COPEMH                              
0004619470                           0010000000000050000LPSCuota de Aportaciones COPEMH                              
0004619540                           0010000000000025000LPSCuota de Aportaciones COPEMH                              
000461962                            0010000000000000000LPSCuota de Aportaciones COPEMH                              
000461966                            0010000000000000000LPSCuota de Aportaciones COPEMH                              
000461983                            0010000000000000000LPSCuota de Aportaciones COPEMH                              
00046199                             0010000000000000000LPSCuota de Aportaciones COPEMH                              
000462002                            0010000000000000000LPSCuota de Aportaciones COPEMH                              
000462003                            0010000000000050000LPSCuota de Aportaciones COPEMH                              
0004620162                           0010000000000083000LPSCuota de Aportaciones COPEMH                              
000462018                            0010000000000000000LPSCuota de Aportaciones COPEMH                              
000462023                            0010000000000000000LPSCuota de Aportaciones COPEMH                              
000462028                            0010000000000179526LPSCuota de Aportaciones COPEMH                              
000462036                            0010000000000000000LPSCuota de Aportaciones COPEMH                              
0004620413                           0010000000000050000LPSCuota de Aportaciones COPEMH                              
0004620417                           0010000000000050000LPSCuota de Aportaciones COPEMH                              
0004620807                           0010000000000025000LPSCuota de Aportaciones COPEMH                              
0004620897                           0010000000000050000LPSCuota de Aportaciones COPEMH                              
0004621025                           0010000000000050000LPSCuota de Aportaciones COPEMH                              
000462113                            0010000000000000000LPSCuota de Aportaciones COPEMH                              
000462114                            0010000000000000000LPSCuota de Aportaciones COPEMH                              
000462124                            0010000000000025000LPSCuota de Aportaciones COPEMH                              
000462135                            0010000000000000000LPSCuota de Aportaciones COPEMH                              
000462154                            0010000000000000000LPSCuota de Aportaciones COPEMH                              
000462166                            0010000000000000000LPSCuota de Aportaciones COPEMH                              
000462175                            0010000000000000000LPSCuota de Aportaciones COPEMH                              
000462180                            0010000000000000000LPSCuota de Aportaciones COPEMH                              
000462185                            0010000000000000000LPSCuota de Aportaciones COPEMH                              
000462191                            0010000000000000000LPSCuota de Aportaciones COPEMH                              
000462206                            0010000000000000000LPSCuota de Aportaciones COPEMH                              
000462209                            0010000000000000000LPSCuota de Aportaciones COPEMH                              
000462210                            0010000000000000000LPSCuota de Aportaciones COPEMH                              
000462226                            0010000000000000000LPSCuota de Aportaciones COPEMH                              
0004622310                           0010000000000050000LPSCuota de Aportaciones COPEMH                              
0004622396                           0010000000000025000LPSCuota de Aportaciones COPEMH                              
000462257                            0010000000000000000LPSCuota de Aportaciones COPEMH                              
0004622570                           0010000000000025000LPSCuota de Aportaciones COPEMH                              
0004622594                           0010000000000025000LPSCuota de Aportaciones COPEMH                              
0004622664                           0010000000000050000LPSCuota de Aportaciones COPEMH                              
000462281                            0010000000000000000LPSCuota de Aportaciones COPEMH                              
0004622921                           0010000000000050000LPSCuota de Aportaciones COPEMH                              
0004622942                           0010000000000025000LPSCuota de Aportaciones COPEMH                              
000462298                            0010000000000000000LPSCuota de Aportaciones COPEMH                              
00046230                             0010000000000000000LPSCuota de Aportaciones COPEMH                              
0004623030                           0010000000000050000LPSCuota de Aportaciones COPEMH                              
0004623172                           0010000000000050000LPSCuota de Aportaciones COPEMH                              
000462326                            0010000000000000000LPSCuota de Aportaciones COPEMH                              
0004623308                           0010000000000025000LPSCuota de Aportaciones COPEMH                              
0004623384                           0010000000000025000LPSCuota de Aportaciones COPEMH                              
000462340                            0010000000000000000LPSCuota de Aportaciones COPEMH                              
000462341                            0010000000000000000LPSCuota de Aportaciones COPEMH                              
0004623553                           0010000000000102716LPSCuota de Aportaciones COPEMH                              
0004623565                           0010000000000050000LPSCuota de Aportaciones COPEMH                              
000462372                            0010000000000000000LPSCuota de Aportaciones COPEMH                              
000462374                            0010000000000000000LPSCuota de Aportaciones COPEMH                              
000462389                            0010000000000000000LPSCuota de Aportaciones COPEMH                              
0004624                              0010000000000000000LPSCuota de Aportaciones COPEMH                              
000462402                            0010000000000179526LPSCuota de Aportaciones COPEMH                              
000462404                            0010000000000000000LPSCuota de Aportaciones COPEMH                              
0004624042                           0010000000000050000LPSCuota de Aportaciones COPEMH                              
00046241                             0010000000000000000LPSCuota de Aportaciones COPEMH                              
000462422                            0010000000000000000LPSCuota de Aportaciones COPEMH                              
000462426                            0010000000000000000LPSCuota de Aportaciones COPEMH                              
000462427                            0010000000000000000LPSCuota de Aportaciones COPEMH                              
000462430                            0010000000000000000LPSCuota de Aportaciones COPEMH                              
000462440                            0010000000000000000LPSCuota de Aportaciones COPEMH                              
000462441                            0010000000000000000LPSCuota de Aportaciones COPEMH                              
0004624561                           0010000000000050000LPSCuota de Aportaciones COPEMH                              
000462465                            0010000000000000000LPSCuota de Aportaciones COPEMH                              
000462512                            0010000000000000000LPSCuota de Aportaciones COPEMH                              
0004625132                           0010000000000025000LPSCuota de Aportaciones COPEMH                              
000462516                            0010000000000000000LPSCuota de Aportaciones COPEMH                              
000462524                            0010000000000000000LPSCuota de Aportaciones COPEMH                              
0004625242                           0010000000000050000LPSCuota de Aportaciones COPEMH                              
000462525                            0010000000000000000LPSCuota de Aportaciones COPEMH                              
0004625349                           0010000000000050000LPSCuota de Aportaciones COPEMH                              
0004625455                           0010000000000025000LPSCuota de Aportaciones COPEMH                              
000462557                            0010000000000000000LPSCuota de Aportaciones COPEMH                              
000462580                            0010000000000000000LPSCuota de Aportaciones COPEMH                              
0004625851                           0010000000000025000LPSCuota de Aportaciones COPEMH                              
000462589                            0010000000000000000LPSCuota de Aportaciones COPEMH                              
00046259                             0010000000000000000LPSCuota de Aportaciones COPEMH                              
0004625936                           0010000000000025000LPSCuota de Aportaciones COPEMH                              
00046261                             0010000000000000000LPSCuota de Aportaciones COPEMH                              
0004626171                           0010000000000050000LPSCuota de Aportaciones COPEMH                              
000462634                            0010000000000000000LPSCuota de Aportaciones COPEMH                              
0004626352                           0010000000000025000LPSCuota de Aportaciones COPEMH                              
00046264                             0010000000000000000LPSCuota de Aportaciones COPEMH                              
000462647                            0010000000000000000LPSCuota de Aportaciones COPEMH                              
0004626497                           0010000000000025000LPSCuota de Aportaciones COPEMH                              
000462652                            0010000000000025000LPSCuota de Aportaciones COPEMH                              
0004626552                           0010000000000050000LPSCuota de Aportaciones COPEMH                              
000462681                            0010000000000000000LPSCuota de Aportaciones COPEMH                              
000462683                            0010000000000000000LPSCuota de Aportaciones COPEMH                              
000462690                            0010000000000000000LPSCuota de Aportaciones COPEMH                              
000462704                            0010000000000000000LPSCuota de Aportaciones COPEMH                              
000462713                            0010000000000000000LPSCuota de Aportaciones COPEMH                              
000462726                            0010000000000000000LPSCuota de Aportaciones COPEMH                              
000462748                            0010000000000017868LPSCuota de Aportaciones COPEMH                              
00046275                             0010000000000000000LPSCuota de Aportaciones COPEMH                              
000462758                            0010000000000000000LPSCuota de Aportaciones COPEMH                              
000462782                            0010000000000000000LPSCuota de Aportaciones COPEMH                              
000462797                            0010000000000000000LPSCuota de Aportaciones COPEMH                              
000462835                            0010000000000000000LPSCuota de Aportaciones COPEMH                              
000462836                            0010000000000000000LPSCuota de Aportaciones COPEMH                              
000462842                            0010000000000017868LPSCuota de Aportaciones COPEMH                              
000462862                            0010000000000000000LPSCuota de Aportaciones COPEMH                              
000462876                            0010000000000000000LPSCuota de Aportaciones COPEMH                              
000462881                            0010000000000000000LPSCuota de Aportaciones COPEMH                              
000462888                            0010000000000000000LPSCuota de Aportaciones COPEMH                              
000462897                            0010000000000000000LPSCuota de Aportaciones COPEMH                              
000462899                            0010000000000002500LPSCuota de Aportaciones COPEMH                              
000462904                            0010000000000000000LPSCuota de Aportaciones COPEMH                              
000462971                            0010000000000000000LPSCuota de Aportaciones COPEMH                              
000462990                            0010000000000000000LPSCuota de Aportaciones COPEMH                              
000462994                            0010000000000000000LPSCuota de Aportaciones COPEMH                              
000463                               0010000000000000000LPSCuota de Aportaciones COPEMH                              
0004630                              0010000000000000000LPSCuota de Aportaciones COPEMH                              
000463004                            0010000000000000000LPSCuota de Aportaciones COPEMH                              
000463010                            0010000000000000000LPSCuota de Aportaciones COPEMH                              
000463064                            0010000000000000000LPSCuota de Aportaciones COPEMH                              
000463066                            0010000000000000000LPSCuota de Aportaciones COPEMH                              
000463088                            0010000000000000000LPSCuota de Aportaciones COPEMH                              
000463093                            0010000000000000000LPSCuota de Aportaciones COPEMH                              
000463095                            0010000000000000000LPSCuota de Aportaciones COPEMH                              
00046310                             0010000000000017868LPSCuota de Aportaciones COPEMH                              
000463140                            0010000000000050000LPSCuota de Aportaciones COPEMH                              
00046316                             0010000000000000000LPSCuota de Aportaciones COPEMH                              
000463208                            0010000000000000000LPSCuota de Aportaciones COPEMH                              
000463218                            0010000000000017868LPSCuota de Aportaciones COPEMH                              
000463261                            0010000000000000000LPSCuota de Aportaciones COPEMH                              
000463280                            0010000000000000000LPSCuota de Aportaciones COPEMH                              
000463282                            0010000000000000000LPSCuota de Aportaciones COPEMH                              
00046333                             0010000000000000000LPSCuota de Aportaciones COPEMH                              
000463333                            0010000000000000000LPSCuota de Aportaciones COPEMH                              
000463334                            0010000000000000000LPSCuota de Aportaciones COPEMH                              
000463341                            0010000000000000000LPSCuota de Aportaciones COPEMH                              
00046335                             0010000000000000000LPSCuota de Aportaciones COPEMH                              
000463365                            0010000000000000000LPSCuota de Aportaciones COPEMH                              
00046337                             0010000000000000000LPSCuota de Aportaciones COPEMH                              
000463373                            0010000000000000000LPSCuota de Aportaciones COPEMH                              
000463388                            0010000000000000000LPSCuota de Aportaciones COPEMH                              
000463401                            0010000000000000000LPSCuota de Aportaciones COPEMH                              
000463407                            0010000000000000000LPSCuota de Aportaciones COPEMH                              
000463421                            0010000000000000000LPSCuota de Aportaciones COPEMH                              
000463459                            0010000000000000000LPSCuota de Aportaciones COPEMH                              
000463463                            0010000000000000000LPSCuota de Aportaciones COPEMH                              
00046348                             0010000000000000000LPSCuota de Aportaciones COPEMH                              
000463481                            0010000000000000000LPSCuota de Aportaciones COPEMH                              
000463492                            0010000000000000000LPSCuota de Aportaciones COPEMH                              
000463536                            0010000000000000000LPSCuota de Aportaciones COPEMH                              
000463539                            0010000000000000000LPSCuota de Aportaciones COPEMH                              
000463543                            0010000000000000000LPSCuota de Aportaciones COPEMH                              
000463547                            0010000000000000000LPSCuota de Aportaciones COPEMH                              
000463556                            0010000000000000000LPSCuota de Aportaciones COPEMH                              
000463557                            0010000000000000000LPSCuota de Aportaciones COPEMH                              
000463565                            0010000000000000000LPSCuota de Aportaciones COPEMH                              
000463568                            0010000000000000000LPSCuota de Aportaciones COPEMH                              
000463572                            0010000000000000000LPSCuota de Aportaciones COPEMH                              
000463581                            0010000000000000000LPSCuota de Aportaciones COPEMH                              
000463589                            0010000000000000000LPSCuota de Aportaciones COPEMH                              
000463596                            0010000000000000000LPSCuota de Aportaciones COPEMH                              
000463609                            0010000000000000000LPSCuota de Aportaciones COPEMH                              
000463610                            0010000000000000000LPSCuota de Aportaciones COPEMH                              
000463618                            0010000000000000000LPSCuota de Aportaciones COPEMH                              
000463627                            0010000000000000000LPSCuota de Aportaciones COPEMH                              
000463633                            0010000000000000000LPSCuota de Aportaciones COPEMH                              
000463636                            0010000000000000000LPSCuota de Aportaciones COPEMH                              
000463683                            0010000000000122145LPSCuota de Aportaciones COPEMH                              
000463693                            0010000000000000000LPSCuota de Aportaciones COPEMH                              
000463695                            0010000000000000000LPSCuota de Aportaciones COPEMH                              
000463710                            0010000000000000000LPSCuota de Aportaciones COPEMH                              
000463713                            0010000000000000000LPSCuota de Aportaciones COPEMH                              
000463724                            0010000000000000000LPSCuota de Aportaciones COPEMH                              
000463734                            0010000000000025000LPSCuota de Aportaciones COPEMH                              
0004638                              0010000000000000000LPSCuota de Aportaciones COPEMH                              
000463803                            0010000000000017868LPSCuota de Aportaciones COPEMH                              
000463850                            0010000000000000000LPSCuota de Aportaciones COPEMH                              
000463860                            0010000000000000000LPSCuota de Aportaciones COPEMH                              
000463871                            0010000000000000000LPSCuota de Aportaciones COPEMH                              
000463872                            0010000000000000000LPSCuota de Aportaciones COPEMH                              
00046388                             0010000000000000000LPSCuota de Aportaciones COPEMH                              
000463885                            0010000000000025000LPSCuota de Aportaciones COPEMH                              
000463892                            0010000000000000000LPSCuota de Aportaciones COPEMH                              
000463913                            0010000000000000000LPSCuota de Aportaciones COPEMH                              
00046393                             0010000000000000000LPSCuota de Aportaciones COPEMH                              
000463937                            0010000000000000000LPSCuota de Aportaciones COPEMH                              
00046395                             0010000000000000000LPSCuota de Aportaciones COPEMH                              
000463976                            0010000000000000000LPSCuota de Aportaciones COPEMH                              
0004640                              0010000000000000000LPSCuota de Aportaciones COPEMH                              
000464008                            0010000000000000000LPSCuota de Aportaciones COPEMH                              
000464011                            0010000000000000000LPSCuota de Aportaciones COPEMH                              
000464012                            0010000000000000000LPSCuota de Aportaciones COPEMH                              
000464020                            0010000000000000000LPSCuota de Aportaciones COPEMH                              
000464024                            0010000000000000000LPSCuota de Aportaciones COPEMH                              
000464026                            0010000000000002000LPSCuota de Aportaciones COPEMH                              
000464028                            0010000000000000000LPSCuota de Aportaciones COPEMH                              
000464031                            0010000000000000000LPSCuota de Aportaciones COPEMH                              
000464041                            0010000000000000000LPSCuota de Aportaciones COPEMH                              
000464046                            0010000000000000000LPSCuota de Aportaciones COPEMH                              
000464052                            0010000000000000000LPSCuota de Aportaciones COPEMH                              
000464065                            0010000000000000000LPSCuota de Aportaciones COPEMH                              
000464087                            0010000000000000000LPSCuota de Aportaciones COPEMH                              
000464089                            0010000000000000000LPSCuota de Aportaciones COPEMH                              
000464102                            0010000000000050000LPSCuota de Aportaciones COPEMH                              
000464121                            0010000000000000000LPSCuota de Aportaciones COPEMH                              
000464122                            0010000000000000000LPSCuota de Aportaciones COPEMH                              
000464138                            0010000000000025000LPSCuota de Aportaciones COPEMH                              
00046414                             0010000000000000000LPSCuota de Aportaciones COPEMH                              
000464146                            0010000000000000000LPSCuota de Aportaciones COPEMH                              
00046415                             0010000000000000000LPSCuota de Aportaciones COPEMH                              
00046416                             0010000000000000000LPSCuota de Aportaciones COPEMH                              
000464165                            0010000000000000000LPSCuota de Aportaciones COPEMH                              
000464167                            0010000000000000000LPSCuota de Aportaciones COPEMH                              
000464176                            0010000000000000000LPSCuota de Aportaciones COPEMH                              
000464178                            0010000000000000000LPSCuota de Aportaciones COPEMH                              
000464190                            0010000000000000000LPSCuota de Aportaciones COPEMH                              
000464195                            0010000000000000000LPSCuota de Aportaciones COPEMH                              
00046421                             0010000000000000000LPSCuota de Aportaciones COPEMH                              
000464216                            0010000000000000000LPSCuota de Aportaciones COPEMH                              
000464229                            0010000000000000000LPSCuota de Aportaciones COPEMH                              
000464270                            0010000000000000000LPSCuota de Aportaciones COPEMH                              
000464310                            0010000000000017868LPSCuota de Aportaciones COPEMH                              
000464311                            0010000000000000000LPSCuota de Aportaciones COPEMH                              
000464312                            0010000000000000000LPSCuota de Aportaciones COPEMH                              
000464324                            0010000000000000000LPSCuota de Aportaciones COPEMH                              
000464326                            0010000000000000000LPSCuota de Aportaciones COPEMH                              
000464371                            0010000000000025000LPSCuota de Aportaciones COPEMH                              
00046439                             0010000000000000000LPSCuota de Aportaciones COPEMH                              
0004644                              0010000000000000000LPSCuota de Aportaciones COPEMH                              
000464407                            0010000000000025000LPSCuota de Aportaciones COPEMH                              
000464415                            0010000000000025000LPSCuota de Aportaciones COPEMH                              
000464457                            0010000000000000000LPSCuota de Aportaciones COPEMH                              
000464487                            0010000000000000000LPSCuota de Aportaciones COPEMH                              
000464499                            0010000000000000000LPSCuota de Aportaciones COPEMH                              
000464500                            0010000000000000000LPSCuota de Aportaciones COPEMH                              
000464501                            0010000000000000000LPSCuota de Aportaciones COPEMH                              
000464507                            0010000000000000000LPSCuota de Aportaciones COPEMH                              
000464522                            0010000000000000000LPSCuota de Aportaciones COPEMH                              
000464538                            0010000000000000000LPSCuota de Aportaciones COPEMH                              
000464552                            0010000000000025000LPSCuota de Aportaciones COPEMH                              
000464605                            0010000000000025000LPSCuota de Aportaciones COPEMH                              
00046466                             0010000000000000000LPSCuota de Aportaciones COPEMH                              
000464729                            0010000000000000000LPSCuota de Aportaciones COPEMH                              
000464731                            0010000000000000000LPSCuota de Aportaciones COPEMH                              
000464739                            0010000000000000000LPSCuota de Aportaciones COPEMH                              
000464759                            0010000000000025000LPSCuota de Aportaciones COPEMH                              
000464764                            0010000000000000000LPSCuota de Aportaciones COPEMH                              
000464765                            0010000000000000000LPSCuota de Aportaciones COPEMH                              
000464776                            0010000000000000000LPSCuota de Aportaciones COPEMH                              
000464784                            0010000000000000000LPSCuota de Aportaciones COPEMH                              
000464786                            0010000000000000000LPSCuota de Aportaciones COPEMH                              
000464822                            0010000000000000000LPSCuota de Aportaciones COPEMH                              
000464826                            0010000000000000000LPSCuota de Aportaciones COPEMH                              
000464838                            0010000000000000000LPSCuota de Aportaciones COPEMH                              
000464852                            0010000000000025000LPSCuota de Aportaciones COPEMH                              
000464863                            0010000000000000000LPSCuota de Aportaciones COPEMH                              
000464867                            0010000000000000000LPSCuota de Aportaciones COPEMH                              
000464871                            0010000000000000000LPSCuota de Aportaciones COPEMH                              
000464878                            0010000000000025000LPSCuota de Aportaciones COPEMH                              
00046491                             0010000000000000000LPSCuota de Aportaciones COPEMH                              
000464950                            0010000000000000000LPSCuota de Aportaciones COPEMH                              
000464965                            0010000000000000000LPSCuota de Aportaciones COPEMH                              
000464993                            0010000000000000000LPSCuota de Aportaciones COPEMH                              
000464995                            0010000000000000000LPSCuota de Aportaciones COPEMH                              
000465008                            0010000000000000000LPSCuota de Aportaciones COPEMH                              
000465045                            0010000000000000000LPSCuota de Aportaciones COPEMH                              
000465052                            0010000000000000000LPSCuota de Aportaciones COPEMH                              
000465061                            0010000000000025000LPSCuota de Aportaciones COPEMH                              
00046509                             0010000000000000000LPSCuota de Aportaciones COPEMH                              
000465142                            0010000000000000000LPSCuota de Aportaciones COPEMH                              
000465165                            0010000000000000000LPSCuota de Aportaciones COPEMH                              
000465168                            0010000000000000000LPSCuota de Aportaciones COPEMH                              
00046518                             0010000000000000000LPSCuota de Aportaciones COPEMH                              
000465180                            0010000000000000000LPSCuota de Aportaciones COPEMH                              
000465208                            0010000000000147145LPSCuota de Aportaciones COPEMH                              
000465231                            0010000000000000000LPSCuota de Aportaciones COPEMH                              
00046525                             0010000000000017868LPSCuota de Aportaciones COPEMH                              
000465375                            0010000000000000000LPSCuota de Aportaciones COPEMH                              
00046539                             0010000000000000000LPSCuota de Aportaciones COPEMH                              
000465420                            0010000000000000000LPSCuota de Aportaciones COPEMH                              
00046544                             0010000000000000000LPSCuota de Aportaciones COPEMH                              
000465484                            0010000000000000000LPSCuota de Aportaciones COPEMH                              
00046552                             0010000000000000000LPSCuota de Aportaciones COPEMH                              
000465523                            0010000000000025000LPSCuota de Aportaciones COPEMH                              
000465551                            0010000000000000000LPSCuota de Aportaciones COPEMH                              
00046556                             0010000000000000000LPSCuota de Aportaciones COPEMH                              
000465570                            0010000000000000000LPSCuota de Aportaciones COPEMH                              
00046559                             0010000000000000000LPSCuota de Aportaciones COPEMH                              
000465599                            0010000000000020000LPSCuota de Aportaciones COPEMH                              
00046565                             0010000000000000000LPSCuota de Aportaciones COPEMH                              
000465655                            0010000000000000000LPSCuota de Aportaciones COPEMH                              
000465663                            0010000000000000000LPSCuota de Aportaciones COPEMH                              
000465678                            0010000000000025000LPSCuota de Aportaciones COPEMH                              
000465686                            0010000000000025000LPSCuota de Aportaciones COPEMH                              
00046570                             0010000000000000000LPSCuota de Aportaciones COPEMH                              
00046575                             0010000000000000000LPSCuota de Aportaciones COPEMH                              
000465767                            0010000000000000000LPSCuota de Aportaciones COPEMH                              
00046577                             0010000000000000000LPSCuota de Aportaciones COPEMH                              
00046578                             0010000000000000000LPSCuota de Aportaciones COPEMH                              
000465802                            0010000000000000000LPSCuota de Aportaciones COPEMH                              
000465803                            0010000000000000000LPSCuota de Aportaciones COPEMH                              
000465825                            0010000000000000000LPSCuota de Aportaciones COPEMH                              
000465842                            0010000000000000000LPSCuota de Aportaciones COPEMH                              
000465846                            0010000000000025000LPSCuota de Aportaciones COPEMH                              
000465861                            0010000000000000000LPSCuota de Aportaciones COPEMH                              
000465874                            0010000000000000000LPSCuota de Aportaciones COPEMH                              
000465886                            0010000000000000000LPSCuota de Aportaciones COPEMH                              
000465892                            0010000000000000000LPSCuota de Aportaciones COPEMH                              
000465924                            0010000000000002500LPSCuota de Aportaciones COPEMH                              
000465925                            0010000000000000000LPSCuota de Aportaciones COPEMH                              
00046593                             0010000000000000000LPSCuota de Aportaciones COPEMH                              
00046597                             0010000000000000000LPSCuota de Aportaciones COPEMH                              
000465982                            0010000000000025000LPSCuota de Aportaciones COPEMH                              
000466014                            0010000000000000000LPSCuota de Aportaciones COPEMH                              
000466040                            0010000000000154526LPSCuota de Aportaciones COPEMH                              
000466107                            0010000000000000000LPSCuota de Aportaciones COPEMH                              
000466108                            0010000000000000000LPSCuota de Aportaciones COPEMH                              
000466166                            0010000000000000000LPSCuota de Aportaciones COPEMH                              
00046618                             0010000000000000000LPSCuota de Aportaciones COPEMH                              
00046619                             0010000000000000000LPSCuota de Aportaciones COPEMH                              
000466214                            0010000000000000000LPSCuota de Aportaciones COPEMH                              
000466216                            0010000000000000000LPSCuota de Aportaciones COPEMH                              
00046623                             0010000000000000000LPSCuota de Aportaciones COPEMH                              
00046624                             0010000000000000000LPSCuota de Aportaciones COPEMH                              
0004663                              0010000000000017868LPSCuota de Aportaciones COPEMH                              
00046630                             0010000000000000000LPSCuota de Aportaciones COPEMH                              
000466305                            0010000000000000000LPSCuota de Aportaciones COPEMH                              
00046633                             0010000000000000000LPSCuota de Aportaciones COPEMH                              
00046634                             0010000000000000000LPSCuota de Aportaciones COPEMH                              
00046638                             0010000000000000000LPSCuota de Aportaciones COPEMH                              
000466384                            0010000000000050000LPSCuota de Aportaciones COPEMH                              
000466398                            0010000000000000000LPSCuota de Aportaciones COPEMH                              
000466411                            0010000000000000000LPSCuota de Aportaciones COPEMH                              
000466424                            0010000000000000000LPSCuota de Aportaciones COPEMH                              
00046645                             0010000000000000000LPSCuota de Aportaciones COPEMH                              
000466500                            0010000000000000000LPSCuota de Aportaciones COPEMH                              
000466505                            0010000000000025000LPSCuota de Aportaciones COPEMH                              
00046653                             0010000000000000000LPSCuota de Aportaciones COPEMH                              
000466539                            0010000000000025000LPSCuota de Aportaciones COPEMH                              
000466585                            0010000000000025000LPSCuota de Aportaciones COPEMH                              
000466661                            0010000000000000000LPSCuota de Aportaciones COPEMH                              
000466717                            0010000000000002000LPSCuota de Aportaciones COPEMH                              
000466719                            0010000000000000000LPSCuota de Aportaciones COPEMH                              
000466765                            0010000000000000000LPSCuota de Aportaciones COPEMH                              
00046678                             0010000000000000000LPSCuota de Aportaciones COPEMH                              
000466797                            0010000000000000000LPSCuota de Aportaciones COPEMH                              
000466802                            0010000000000000000LPSCuota de Aportaciones COPEMH                              
000466806                            0010000000000122145LPSCuota de Aportaciones COPEMH                              
000466814                            0010000000000025000LPSCuota de Aportaciones COPEMH                              
00046682                             0010000000000000000LPSCuota de Aportaciones COPEMH                              
000466835                            0010000000000025000LPSCuota de Aportaciones COPEMH                              
000466878                            0010000000000025000LPSCuota de Aportaciones COPEMH                              
00046688                             0010000000000000000LPSCuota de Aportaciones COPEMH                              
000466884                            0010000000000000000LPSCuota de Aportaciones COPEMH                              
00046689                             0010000000000000000LPSCuota de Aportaciones COPEMH                              
0004669                              0010000000000000000LPSCuota de Aportaciones COPEMH                              
000466935                            0010000000000000000LPSCuota de Aportaciones COPEMH                              
000466939                            0010000000000000000LPSCuota de Aportaciones COPEMH                              
00046694                             0010000000000000000LPSCuota de Aportaciones COPEMH                              
000467                               0010000000000000000LPSCuota de Aportaciones COPEMH                              
0004670                              0010000000000000000LPSCuota de Aportaciones COPEMH                              
000467066                            0010000000000025000LPSCuota de Aportaciones COPEMH                              
000467096                            0010000000000000000LPSCuota de Aportaciones COPEMH                              
000467097                            0010000000000000000LPSCuota de Aportaciones COPEMH                              
000467132                            0010000000000000000LPSCuota de Aportaciones COPEMH                              
00046720                             0010000000000000000LPSCuota de Aportaciones COPEMH                              
00046721                             0010000000000000000LPSCuota de Aportaciones COPEMH                              
00046724                             0010000000000000000LPSCuota de Aportaciones COPEMH                              
000467257                            0010000000000179526LPSCuota de Aportaciones COPEMH                              
000467272                            0010000000000000000LPSCuota de Aportaciones COPEMH                              
000467293                            0010000000000025000LPSCuota de Aportaciones COPEMH                              
000467330                            0010000000000025000LPSCuota de Aportaciones COPEMH                              
000467338                            0010000000000000000LPSCuota de Aportaciones COPEMH                              
00046734                             0010000000000000000LPSCuota de Aportaciones COPEMH                              
000467355                            0010000000000000000LPSCuota de Aportaciones COPEMH                              
0004674                              0010000000000000000LPSCuota de Aportaciones COPEMH                              
000467408                            0010000000000000000LPSCuota de Aportaciones COPEMH                              
00046743                             0010000000000017868LPSCuota de Aportaciones COPEMH                              
000467437                            0010000000000025000LPSCuota de Aportaciones COPEMH                              
000467466                            0010000000000000000LPSCuota de Aportaciones COPEMH                              
000467478                            0010000000000000000LPSCuota de Aportaciones COPEMH                              
000467497                            0010000000000000000LPSCuota de Aportaciones COPEMH                              
000467525                            0010000000000000000LPSCuota de Aportaciones COPEMH                              
00046754                             0010000000000000000LPSCuota de Aportaciones COPEMH                              
00046759                             0010000000000000000LPSCuota de Aportaciones COPEMH                              
000467628                            0010000000000000000LPSCuota de Aportaciones COPEMH                              
000467645                            0010000000000179526LPSCuota de Aportaciones COPEMH                              
000467699                            0010000000000000000LPSCuota de Aportaciones COPEMH                              
000467703                            0010000000000000000LPSCuota de Aportaciones COPEMH                              
00046771                             0010000000000000000LPSCuota de Aportaciones COPEMH                              
000467722                            0010000000000000000LPSCuota de Aportaciones COPEMH                              
000467723                            0010000000000000000LPSCuota de Aportaciones COPEMH                              
000467725                            0010000000000025000LPSCuota de Aportaciones COPEMH                              
000467758                            0010000000000000000LPSCuota de Aportaciones COPEMH                              
000467763                            0010000000000000000LPSCuota de Aportaciones COPEMH                              
000467764                            0010000000000000000LPSCuota de Aportaciones COPEMH                              
00046778                             0010000000000000000LPSCuota de Aportaciones COPEMH                              
000467806                            0010000000000000000LPSCuota de Aportaciones COPEMH                              
000467859                            0010000000000000000LPSCuota de Aportaciones COPEMH                              
000467924                            0010000000000000000LPSCuota de Aportaciones COPEMH                              
000467933                            0010000000000000000LPSCuota de Aportaciones COPEMH                              
00046794                             0010000000000000000LPSCuota de Aportaciones COPEMH                              
000467940                            0010000000000025000LPSCuota de Aportaciones COPEMH                              
000467990                            0010000000000000000LPSCuota de Aportaciones COPEMH                              
000468                               0010000000000000000LPSCuota de Aportaciones COPEMH                              
000468010                            0010000000000000000LPSCuota de Aportaciones COPEMH                              
000468042                            0010000000000000000LPSCuota de Aportaciones COPEMH                              
000468082                            0010000000000025000LPSCuota de Aportaciones COPEMH                              
000468126                            0010000000000000000LPSCuota de Aportaciones COPEMH                              
00046815                             0010000000000000000LPSCuota de Aportaciones COPEMH                              
000468152                            0010000000000000000LPSCuota de Aportaciones COPEMH                              
000468168                            0010000000000154526LPSCuota de Aportaciones COPEMH                              
000468267                            0010000000000000000LPSCuota de Aportaciones COPEMH                              
000468340                            0010000000000000000LPSCuota de Aportaciones COPEMH                              
000468357                            0010000000000000000LPSCuota de Aportaciones COPEMH                              
00046836                             0010000000000000000LPSCuota de Aportaciones COPEMH                              
00046839                             0010000000000000000LPSCuota de Aportaciones COPEMH                              
000468402                            0010000000000000000LPSCuota de Aportaciones COPEMH                              
00046842                             0010000000000000000LPSCuota de Aportaciones COPEMH                              
00046844                             0010000000000000000LPSCuota de Aportaciones COPEMH                              
00046846                             0010000000000000000LPSCuota de Aportaciones COPEMH                              
000468467                            0010000000000000000LPSCuota de Aportaciones COPEMH                              
000468504                            0010000000000000000LPSCuota de Aportaciones COPEMH                              
00046852                             0010000000000000000LPSCuota de Aportaciones COPEMH                              
000468585                            0010000000000025000LPSCuota de Aportaciones COPEMH                              
00046859                             0010000000000000000LPSCuota de Aportaciones COPEMH                              
000468617                            0010000000000000000LPSCuota de Aportaciones COPEMH                              
000468669                            0010000000000000000LPSCuota de Aportaciones COPEMH                              
00046870                             0010000000000000000LPSCuota de Aportaciones COPEMH                              
000468737                            0010000000000025000LPSCuota de Aportaciones COPEMH                              
00046877                             0010000000000000000LPSCuota de Aportaciones COPEMH                              
000468770                            0010000000000025000LPSCuota de Aportaciones COPEMH                              
000468918                            0010000000000050000LPSCuota de Aportaciones COPEMH                              
000468922                            0010000000000025000LPSCuota de Aportaciones COPEMH                              
00046893                             0010000000000000000LPSCuota de Aportaciones COPEMH                              
000468947                            0010000000000154526LPSCuota de Aportaciones COPEMH                              
000468966                            0010000000000000000LPSCuota de Aportaciones COPEMH                              
000468983                            0010000000000050000LPSCuota de Aportaciones COPEMH                              
00046900                             0010000000000000000LPSCuota de Aportaciones COPEMH                              
000469000                            0010000000000025000LPSCuota de Aportaciones COPEMH                              
000469077                            0010000000000050000LPSCuota de Aportaciones COPEMH                              
000469267                            0010000000000025000LPSCuota de Aportaciones COPEMH                              
00046929                             0010000000000000000LPSCuota de Aportaciones COPEMH                              
000469325                            0010000000000025000LPSCuota de Aportaciones COPEMH                              
000469343                            0010000000000000000LPSCuota de Aportaciones COPEMH                              
000469467                            0010000000000025000LPSCuota de Aportaciones COPEMH                              
000469490                            0010000000000000000LPSCuota de Aportaciones COPEMH                              
000469505                            0010000000000000000LPSCuota de Aportaciones COPEMH                              
000469528                            0010000000000050000LPSCuota de Aportaciones COPEMH                              
00046956                             0010000000000000000LPSCuota de Aportaciones COPEMH                              
000469601                            0010000000000000000LPSCuota de Aportaciones COPEMH                              
000469620                            0010000000000000000LPSCuota de Aportaciones COPEMH                              
000469624                            0010000000000000000LPSCuota de Aportaciones COPEMH                              
000469633                            0010000000000000000LPSCuota de Aportaciones COPEMH                              
000469707                            0010000000000025000LPSCuota de Aportaciones COPEMH                              
000469708                            0010000000000025000LPSCuota de Aportaciones COPEMH                              
000469754                            0010000000000000000LPSCuota de Aportaciones COPEMH                              
000469825                            0010000000000025000LPSCuota de Aportaciones COPEMH                              
00046988                             0010000000000000000LPSCuota de Aportaciones COPEMH                              
000469896                            0010000000000127145LPSCuota de Aportaciones COPEMH                              
00046990                             0010000000000000000LPSCuota de Aportaciones COPEMH                              
000469954                            0010000000000000000LPSCuota de Aportaciones COPEMH                              
000469955                            0010000000000000000LPSCuota de Aportaciones COPEMH                              
000469959                            0010000000000000000LPSCuota de Aportaciones COPEMH                              
000469960                            0010000000000025000LPSCuota de Aportaciones COPEMH                              
000469980                            0010000000000000000LPSCuota de Aportaciones COPEMH                              
00046999                             0010000000000000000LPSCuota de Aportaciones COPEMH                              
